:100000000C9462000C948A000C948A000C948A0070
:100010000C948A000C948A000C948A000C948A0038
:100020000C948A000C948A000C948A000C948A0028
:100030000C948A000C948A000C948A000C948A0018
:100040000C9424010C948A000C941A040C944C0413
:100050000C948A000C948A000C948A000C948A00F8
:100060000C948A000C948A00000000080002010031
:100070000003040700000000000000000102040863
:100080001020408001020408102001020408102002
:10009000040404040404040402020202020203032E
:1000A00003030303000000002300260029000000D2
:1000B0000000250028002B0000000000240027007D
:1000C0002A007C0411241FBECFEFD8E0DEBFCDBFD5
:1000D00011E0A0E0B1E0ECE7FEE002C005900D9277
:1000E000A632B107D9F721E0A6E2B1E001C01D9226
:1000F000AC3CB207E1F710E0C4ECD0E004C02297BA
:10010000FE010E943807C23CD107C9F70E94C00413
:100110000C943C070C940000CF92DF92EF92FF9278
:100120000F931F93E82FF92F05C0015011092109E2
:10013000310961F1908196239417B9F305C00150FC
:1001400011092109310911F1908196239413F7CFF8
:10015000C12CD12CE12CF12C0AC08FEFC81AD80A7F
:10016000E80AF80A0C151D052E053F0579F0808177
:100170008623841791F36C2D7D2D8E2D9F2D1F913D
:100180000F91FF90EF90DF90CF90089560E070E0C6
:1001900080E090E01F910F91FF90EF90DF90CF9063
:1001A000089526E040E855E260E070E08FE291E0DB
:1001B0000E94BE0361E08CE00E94260260E08DE0B8
:1001C0000C94260260E08CE00E945F0282E090E0E6
:1001D0000E94B90161E08CE00E945F028AE090E039
:1001E0000E94B90160E08CE00E945F0220E432E4EA
:1001F0004FE050E061E08DE00E94950222E030E0A7
:1002000040E050E00E941707CA01B9010E94690648
:100210002DEC3CEC48EE51E40E94CE050E943606DF
:10022000AB01BC012AE030E08FE291E00E9483053F
:1002300060E071E08FE291E00E94180562E370E0F7
:1002400080E090E00C9491011F920F920FB60F92F4
:1002500011242F933F938F939F93AF93BF938091DC
:10026000270190912801A0912901B0912A01309194
:10027000260126E0230F2D3720F40296A11DB11D83
:1002800005C029E8230F0396A11DB11D2093260167
:100290008093270190932801A0932901B0932A010C
:1002A00080912B0190912C01A0912D01B0912E01F4
:1002B0000196A11DB11D80932B0190932C01A09359
:1002C0002D01B0932E01BF91AF919F918F913F91DE
:1002D0002F910F900FBE0F901F9018953FB7F89475
:1002E00080912B0190912C01A0912D01B0912E01B4
:1002F00026B5A89B05C02F3F19F00196A11DB11D81
:100300003FBF6627782F892F9A2F620F711D811D9D
:10031000911D43E0660F771F881F991F4A95D1F7FB
:100320000895CF92DF92EF92FF92CF93DF936B010C
:100330007C010E946E01EB01C114D104E104F104BF
:1003400089F00E94CD050E946E016C1B7D0B683EFA
:10035000734090F381E0C81AD108E108F108C85150
:10036000DC4FEACFDF91CF91FF90EF90DF90CF90FD
:1003700008958330910528F0880F991F04970197FD
:10038000F1F70895789484B5826084BD84B5816066
:1003900084BD85B5826085BD85B5816085BDEEE68D
:1003A000F0E0808181608083E1E8F0E0108280816C
:1003B00082608083808181608083E0E8F0E08081DA
:1003C00081608083E1EBF0E0808184608083E0EBFA
:1003D000F0E0808181608083EAE7F0E080818460E2
:1003E000808380818260808380818E7F8083808112
:1003F000806880831092C1000895833081F028F4D2
:10040000813099F08230A1F008958730A9F08830CA
:10041000B9F08430D1F4809180008F7D03C0809149
:1004200080008F7780938000089584B58F7702C015
:1004300084B58F7D84BD08958091B0008F7703C00F
:100440008091B0008F7D8093B0000895CF93DF93AB
:1004500090E0FC01E458FF4F2491FC01E057FF4F6E
:100460008491882349F190E0880F991FFC01E8549A
:10047000FF4FA591B49182559F4FFC01C591D49136
:100480009FB7611108C0F8948C91209582238C93BA
:10049000888182230AC0623051F4F8948C91322F03
:1004A000309583238C938881822B888304C0F894B1
:1004B0008C91822B8C939FBFDF91CF9108950F93E6
:1004C0001F93CF93DF931F92CDB7DEB7282F30E075
:1004D000F901E859FF4F8491F901E458FF4F149155
:1004E000F901E057FF4F04910023C9F0882321F060
:1004F00069830E94FD016981E02FF0E0EE0FFF1F8C
:10050000E255FF4FA591B4919FB7F8948C9161117A
:1005100003C01095812301C0812B8C939FBF0F9046
:10052000DF91CF911F910F9108950F931F93762F15
:1005300090E0FC01E458FF4F6491FC01E057FF4F4D
:10054000E4917111762FF0E0EE0FFF1FEC55FF4F95
:100550008591949189019A01B3E0000F111F221F28
:10056000331FBA95D1F744E036952795179507952F
:100570004A95D1F7472F0E948C00611571058105BE
:10058000910599F06F5F7F4F8F4F9F4F24E0660F6B
:10059000771F881F991F2A95D1F733E09695879585
:1005A000779567953A95D1F703C060E070E0CB018D
:1005B0001F910F910895FC01818D228D90E0805C48
:1005C0009F4F821B91098F7399270895FC01918D8C
:1005D000828D981731F0828DE80FF11D858D90E0A6
:1005E00008958FEF9FEF0895FC01918D828D9817EC
:1005F00061F0828DDF01A80FB11D5D968C91928D07
:100600009F5F9F73928F90E008958FEF9FEF089503
:1006100082E794E0892B49F080E090E0892B29F073
:100620000E94720481110C9400000895FC01848DD5
:10063000DF01A80FB11DA35ABF4F2C91848D90E00C
:1006400001968F739927848FA689B7892C93A089E7
:10065000B1898C9180648C93938D848D981306C09E
:100660000288F389E02D80818F7D80830895CF9368
:10067000DF93EC01888D8823C9F0EA89FB898081AA
:1006800085FD05C0A889B9898C9186FD0FC00FB67C
:1006900007FCF5CF808185FFF2CFA889B9898C91BD
:1006A00085FFEDCFCE010E941603E7CFDF91CF91FA
:1006B0000895CF92DF92FF920F931F93CF93DF9312
:1006C0001F92CDB7DEB76C0181E0D60158968C93AE
:1006D00058975B969C915B975C968C915C9798136E
:1006E00007C05096ED91FC915197808185FD2EC0F9
:1006F000F601038D10E00F5F1F4F0F731127F02ECF
:10070000F601848DF81211C00FB607FCF9CFD6019F
:100710005096ED91FC915197808185FFF1CFC601F4
:1007200069830E9416036981EBCF838DE80FF11D69
:10073000E35AFF4F6083D6015B960C935B9752960A
:10074000ED91FC915397808180620CC0D601569642
:10075000ED91FC91579760835096ED91FC915197E4
:1007600080818064808381E090E00F90DF91CF9161
:100770001F910F91FF90DF90CF900895BF92CF927D
:10078000DF92EF92FF92CF93DF93EC016A017B013E
:10079000B22E60E874E88EE190E0A70196010E9415
:1007A000F50621503109410951095695479537956C
:1007B0002795E889F98982E08083211580E138074F
:1007C00098F0E889F989108260E472E48FE090E0A3
:1007D000A70196010E94F5062150310941095109EE
:1007E0005695479537952795EC85FD853083EE85A1
:1007F000FF852083188EEC89FD89B082EA89FB8908
:10080000808180618083EA89FB8980818860808320
:10081000EA89FB89808180688083EA89FB898081FD
:100820008F7D8083DF91CF91FF90EF90DF90CF900D
:10083000BF9008951F920F920FB60F9211242F931D
:100840008F939F93EF93FF93E0913F01F0914001CD
:100850008081E0914501F091460182FD12C09081B6
:10086000809148018F5F8F7320914901821751F069
:10087000E0914801F0E0E15DFE4F958F80934801E3
:1008800001C08081FF91EF919F918F912F910F90E7
:100890000FBE0F901F9018951F920F920FB60F92D8
:1008A00011242F933F934F935F936F937F938F9375
:1008B0009F93AF93BF93EF93FF938FE291E00E94DA
:1008C0001603FF91EF91BF91AF919F918F917F910F
:1008D0006F915F914F913F912F910F900FBE0F90AD
:1008E0001F9018958FE291E00E94DB0221E0892B96
:1008F00009F420E0822F0895109232011092310104
:1009000088EE93E0A0E0B0E080933301909334014F
:10091000A0933501B093360188E091E090933001C7
:1009200080932F0185EC90E090933C0180933B01F4
:1009300084EC90E090933E0180933D0180EC90E048
:100940009093400180933F0181EC90E090934201AD
:100950008093410182EC90E09093440180934301A5
:1009600086EC90E0909346018093450110924801F7
:100970001092490110924A0110924B010895089576
:100980000E94C2010E94BF040E94D100C8E0D3E0CF
:100990000E94E2002097E1F30E940803F9CFCF9272
:1009A000DF92EF92FF920F931F93CF93DF936C012F
:1009B0007A01EB01E60EF71E00E010E0CE15DF0530
:1009C00061F06991D601ED91FC910190F081E02DEB
:1009D000C6010995080F191FF1CFC801DF91CF910A
:1009E0001F910F91FF90EF90DF90CF9008956115C8
:1009F000710581F0DB010D900020E9F7AD01415058
:100A00005109461B570BDC01ED91FC910280F381EB
:100A1000E02D099480E090E00895DC01ED91FC91D7
:100A20000190F081E02D099464E171E00C94F704E9
:100A30000F931F93CF93DF93EC010E94F7048C0177
:100A4000CE010E941405800F911FDF91CF911F915D
:100A50000F9108958F929F92AF92BF92CF92DF92A3
:100A6000EF92FF920F931F93CF93DF93CDB7DEB733
:100A7000A1970FB6F894DEBF0FBECDBF7C01C42E88
:100A8000E52FCB01D22E19A221E02D1510F02AE07E
:100A9000D22E8E010F5D1F4F8D2C912CA12CB12CCD
:100AA0006C2D7E2FA50194010E94F5068C2DD29EFF
:100AB00080191124015011098A3014F4805D01C09D
:100AC000895CF8018083211531054105510521F02C
:100AD000C22EE32FCA01E4CFB801C7010E94F70478
:100AE000A1960FB6F894DEBF0FBECDBFDF91CF91B8
:100AF0001F910F91FF90EF90DF90CF90BF90AF903C
:100B00009F908F900895CF92DF92EF92FF920F9374
:100B10001F93CF93DF93EC016A017B01211531050F
:100B200079F4E881F9810190F081E02D642FDF9163
:100B3000CF911F910F91FF90EF90DF90CF9009948C
:100B40002A303105E9F477FF1AC06DE20E940D05E5
:100B50008C0144275527BA014C195D096E097F099C
:100B60002AE0CE010E942A05800F911FDF91CF91CC
:100B70001F910F91FF90EF90DF90CF9008952AE0A2
:100B8000B701A601CE01DF91CF911F910F91FF9088
:100B9000EF90DF90CF900C942A0508950CD0EBC015
:100BA000E3D040F0DAD030F021F45F3F19F0CCC050
:100BB000511115C1CFC0F0D098F39923C9F3552333
:100BC000B1F3951B550BBB27AA2762177307840740
:100BD00038F09F5F5F4F220F331F441FAA1FA9F3F6
:100BE00033D00E2E3AF0E0E830D091505040E695E8
:100BF000001CCAF729D0FE2F27D0660F771F881F49
:100C0000BB1F261737074807AB07B0E809F0BB0B37
:100C1000802DBF01FF2793585F4F2AF09E3F51055B
:100C200068F092C0DCC05F3FECF3983EDCF3869541
:100C300077956795B795F7959F5FC9F7880F911DD1
:100C40009695879597F90895E1E0660F771F881FBD
:100C5000BB1F621773078407BA0720F0621B730B70
:100C6000840BBA0BEE1F88F7E095089504D06894C2
:100C7000B111B5C0089598D088F09F5790F0B92F62
:100C80009927B751A0F0D1F0660F771F881F991FE1
:100C90001AF0BA95C9F712C0B13081F09FD0B1E017
:100CA00008959CC0672F782F8827B85F39F0B93F27
:100CB000CCF3869577956795B395D9F73EF49095E3
:100CC0008095709561957F4F8F4F9F4F0895E89461
:100CD00009C097FB3EF490958095709561957F4F84
:100CE0008F4F9F4F9923A9F0F92F96E9BB27939532
:100CF000F695879577956795B795F111F8CFFAF442
:100D0000BB0F11F460FF1BC06F5F7F4F8F4F9F4F72
:100D100016C0882311F096E911C0772321F09EE8D0
:100D2000872F762F05C0662371F096E8862F70E036
:100D300060E02AF09A95660F771F881FDAF7880F10
:100D40009695879597F9089597F99F6780E870E0E1
:100D500060E008959FEF80EC089500240A94161631
:100D6000170618060906089500240A941216130699
:100D7000140605060895092E0394000C11F4882327
:100D800052F0BB0F40F4BF2B11F460FF04C06F5F43
:100D90007F4F8F4F9F4F089557FD9058440F551F19
:100DA00059F05F3F71F04795880F97FB991F61F0ED
:100DB0009F3F79F087950895121613061406551F64
:100DC000F2CF4695F1DF08C0161617061806991FD0
:100DD000F1CF86957105610508940895E894BB27C5
:100DE00066277727CB0197F90895A1E21A2EAA1B4F
:100DF000BB1BFD010DC0AA1FBB1FEE1FFF1FA217CB
:100E0000B307E407F50720F0A21BB30BE40BF50BC7
:100E1000661F771F881F991F1A9469F76095709550
:100E2000809590959B01AC01BD01CF010895052EE1
:100E300097FB1EF400940E942E0757FD07D00E94D6
:100E4000F50607FC03D04EF40C942E075095409500
:100E5000309521953F4F4F4F5F4F08959095809566
:100E6000709561957F4F8F4F9F4F0895EE0FFF1F35
:0C0E70000590F491E02D0994F894FFCF58
:100E7C0020636D00000000005903CF04DB02F40274
:100E8C00E60237030D0A006E616E00696E66006F34
:060E9C007666002E000046
:00000001FF
